{
  "contractName": "ConstructionProject",
  "abi": [
    {
      "inputs": [
        {
          "internalType": "address",
          "name": "_contractor",
          "type": "address"
        },
        {
          "internalType": "address",
          "name": "_auditor",
          "type": "address"
        },
        {
          "internalType": "uint256",
          "name": "_totalBudget",
          "type": "uint256"
        }
      ],
      "stateMutability": "nonpayable",
      "type": "constructor"
    },
    {
      "anonymous": false,
      "inputs": [
        {
          "indexed": false,
          "internalType": "uint256",
          "name": "milestoneId",
          "type": "uint256"
        },
        {
          "indexed": false,
          "internalType": "uint256",
          "name": "amount",
          "type": "uint256"
        }
      ],
      "name": "FundsReleased",
      "type": "event"
    },
    {
      "anonymous": false,
      "inputs": [
        {
          "indexed": false,
          "internalType": "uint256",
          "name": "milestoneId",
          "type": "uint256"
        }
      ],
      "name": "MilestoneVerified",
      "type": "event"
    },
    {
      "inputs": [],
      "name": "auditor",
      "outputs": [
        {
          "internalType": "address",
          "name": "",
          "type": "address"
        }
      ],
      "stateMutability": "view",
      "type": "function"
    },
    {
      "inputs": [],
      "name": "contractor",
      "outputs": [
        {
          "internalType": "address",
          "name": "",
          "type": "address"
        }
      ],
      "stateMutability": "view",
      "type": "function"
    },
    {
      "inputs": [],
      "name": "government",
      "outputs": [
        {
          "internalType": "address",
          "name": "",
          "type": "address"
        }
      ],
      "stateMutability": "view",
      "type": "function"
    },
    {
      "inputs": [
        {
          "internalType": "uint256",
          "name": "",
          "type": "uint256"
        }
      ],
      "name": "milestonesVerified",
      "outputs": [
        {
          "internalType": "bool",
          "name": "",
          "type": "bool"
        }
      ],
      "stateMutability": "view",
      "type": "function"
    },
    {
      "inputs": [],
      "name": "releasedFunds",
      "outputs": [
        {
          "internalType": "uint256",
          "name": "",
          "type": "uint256"
        }
      ],
      "stateMutability": "view",
      "type": "function"
    },
    {
      "inputs": [],
      "name": "totalBudget",
      "outputs": [
        {
          "internalType": "uint256",
          "name": "",
          "type": "uint256"
        }
      ],
      "stateMutability": "view",
      "type": "function"
    },
    {
      "stateMutability": "payable",
      "type": "receive"
    },
    {
      "inputs": [
        {
          "internalType": "uint256",
          "name": "milestoneId",
          "type": "uint256"
        }
      ],
      "name": "verifyMilestone",
      "outputs": [],
      "stateMutability": "nonpayable",
      "type": "function"
    },
    {
      "inputs": [
        {
          "internalType": "uint256",
          "name": "milestoneId",
          "type": "uint256"
        },
        {
          "internalType": "uint256",
          "name": "amount",
          "type": "uint256"
        }
      ],
      "name": "releaseFunds",
      "outputs": [],
      "stateMutability": "nonpayable",
      "type": "function"
    }
  ],
  "bytecode": "0x60806040525f600455348015610013575f5ffd5b50604051610b64380380610b6483398181016040528101906100359190610194565b335f5f6101000a81548173ffffffffffffffffffffffffffffffffffffffff021916908373ffffffffffffffffffffffffffffffffffffffff1602179055508260015f6101000a81548173ffffffffffffffffffffffffffffffffffffffff021916908373ffffffffffffffffffffffffffffffffffffffff1602179055508160025f6101000a81548173ffffffffffffffffffffffffffffffffffffffff021916908373ffffffffffffffffffffffffffffffffffffffff160217905550806003819055505050506101e4565b5f5ffd5b5f73ffffffffffffffffffffffffffffffffffffffff82169050919050565b5f61013082610107565b9050919050565b61014081610126565b811461014a575f5ffd5b50565b5f8151905061015b81610137565b92915050565b5f819050919050565b61017381610161565b811461017d575f5ffd5b50565b5f8151905061018e8161016a565b92915050565b5f5f5f606084860312156101ab576101aa610103565b5b5f6101b88682870161014d565b93505060206101c98682870161014d565b92505060406101da86828701610180565b9150509250925092565b610973806101f15f395ff3fe60806040526004361061007e575f3560e01c8063c78da39a1161004d578063c78da39a1461012f578063df7843ae14610159578063f5eaa83614610181578063fbfd2045146101bd57610085565b80632672f526146100895780633ec045a6146100b3578063a85f3128146100dd578063b48c0d261461010557610085565b3661008557005b5f5ffd5b348015610094575f5ffd5b5061009d6101e7565b6040516100aa91906105a6565b60405180910390f35b3480156100be575f5ffd5b506100c761020b565b6040516100d491906105a6565b60405180910390f35b3480156100e8575f5ffd5b5061010360048036038101906100fe91906105f6565b610230565b005b348015610110575f5ffd5b50610119610322565b6040516101269190610630565b60405180910390f35b34801561013a575f5ffd5b50610143610328565b6040516101509190610630565b60405180910390f35b348015610164575f5ffd5b5061017f600480360381019061017a9190610649565b61032e565b005b34801561018c575f5ffd5b506101a760048036038101906101a291906105f6565b610525565b6040516101b491906106a1565b60405180910390f35b3480156101c8575f5ffd5b506101d1610542565b6040516101de91906105a6565b60405180910390f35b5f5f9054906101000a900473ffffffffffffffffffffffffffffffffffffffff1681565b60025f9054906101000a900473ffffffffffffffffffffffffffffffffffffffff1681565b60025f9054906101000a900473ffffffffffffffffffffffffffffffffffffffff1673ffffffffffffffffffffffffffffffffffffffff163373ffffffffffffffffffffffffffffffffffffffff16146102bf576040517f08c379a00000000000000000000000000000000000000000000000000000000081526004016102b69061073a565b60405180910390fd5b600160055f8381526020019081526020015f205f6101000a81548160ff0219169083151502179055507f7600d28d80d9a580b5c13e66bbeb88e608fa668e23c30d1b34d6ed950cd9186f816040516103179190610630565b60405180910390a150565b60045481565b60035481565b5f5f9054906101000a900473ffffffffffffffffffffffffffffffffffffffff1673ffffffffffffffffffffffffffffffffffffffff163373ffffffffffffffffffffffffffffffffffffffff16146103bc576040517f08c379a00000000000000000000000000000000000000000000000000000000081526004016103b3906107c8565b60405180910390fd5b60055f8381526020019081526020015f205f9054906101000a900460ff16610419576040517f08c379a000000000000000000000000000000000000000000000000000000000815260040161041090610830565b60405180910390fd5b6003548160045461042a919061087b565b111561046b576040517f08c379a0000000000000000000000000000000000000000000000000000000008152600401610462906108f8565b60405180910390fd5b8060045f82825461047c919061087b565b9250508190555060015f9054906101000a900473ffffffffffffffffffffffffffffffffffffffff1673ffffffffffffffffffffffffffffffffffffffff166108fc8290811502906040515f60405180830381858888f193505050501580156104e7573d5f5f3e3d5ffd5b507f80230996023d69b50793fa73f1919127c9d8e741d3989743c479169f22e7a2888282604051610519929190610916565b60405180910390a15050565b6005602052805f5260405f205f915054906101000a900460ff1681565b60015f9054906101000a900473ffffffffffffffffffffffffffffffffffffffff1681565b5f73ffffffffffffffffffffffffffffffffffffffff82169050919050565b5f61059082610567565b9050919050565b6105a081610586565b82525050565b5f6020820190506105b95f830184610597565b92915050565b5f5ffd5b5f819050919050565b6105d5816105c3565b81146105df575f5ffd5b50565b5f813590506105f0816105cc565b92915050565b5f6020828403121561060b5761060a6105bf565b5b5f610618848285016105e2565b91505092915050565b61062a816105c3565b82525050565b5f6020820190506106435f830184610621565b92915050565b5f5f6040838503121561065f5761065e6105bf565b5b5f61066c858286016105e2565b925050602061067d858286016105e2565b9150509250929050565b5f8115159050919050565b61069b81610687565b82525050565b5f6020820190506106b45f830184610692565b92915050565b5f82825260208201905092915050565b7f4f6e6c792061756469746f722063616e20766572696679206d696c6573746f6e5f8201527f6573000000000000000000000000000000000000000000000000000000000000602082015250565b5f6107246022836106ba565b915061072f826106ca565b604082019050919050565b5f6020820190508181035f83015261075181610718565b9050919050565b7f4f6e6c7920676f7665726e6d656e742063616e2072656c656173652066756e645f8201527f7300000000000000000000000000000000000000000000000000000000000000602082015250565b5f6107b26021836106ba565b91506107bd82610758565b604082019050919050565b5f6020820190508181035f8301526107df816107a6565b9050919050565b7f4d696c6573746f6e65206e6f74207665726966696564000000000000000000005f82015250565b5f61081a6016836106ba565b9150610825826107e6565b602082019050919050565b5f6020820190508181035f8301526108478161080e565b9050919050565b7f4e487b71000000000000000000000000000000000000000000000000000000005f52601160045260245ffd5b5f610885826105c3565b9150610890836105c3565b92508282019050808211156108a8576108a761084e565b5b92915050565b7f45786365656473206275646765740000000000000000000000000000000000005f82015250565b5f6108e2600e836106ba565b91506108ed826108ae565b602082019050919050565b5f6020820190508181035f83015261090f816108d6565b9050919050565b5f6040820190506109295f830185610621565b6109366020830184610621565b939250505056fea26469706673582212204be23c330b5abe9197627b4562067e414c7c9a2060e2f7b15631cfd090a2fe1064736f6c634300081c0033",
  "immutableReferences": {},
  "source": "// SPDX-License-Identifier: MIT\r\npragma solidity ^0.8.0;\r\n\r\ncontract ConstructionProject {\r\n    address public government;\r\n    address public contractor;\r\n    address public auditor;\r\n\r\n    uint public totalBudget;\r\n    uint public releasedFunds = 0;\r\n    mapping(uint => bool) public milestonesVerified;\r\n\r\n    event MilestoneVerified(uint milestoneId);\r\n    event FundsReleased(uint milestoneId, uint amount);\r\n\r\n    constructor(address _contractor, address _auditor, uint _totalBudget) {\r\n        government = msg.sender;\r\n        contractor = _contractor;\r\n        auditor = _auditor;\r\n        totalBudget = _totalBudget;\r\n    }\r\n\r\n    function verifyMilestone(uint milestoneId) public {\r\n        require(msg.sender == auditor, \"Only auditor can verify milestones\");\r\n        milestonesVerified[milestoneId] = true;\r\n        emit MilestoneVerified(milestoneId);\r\n    }\r\n\r\n    function releaseFunds(uint milestoneId, uint amount) public {\r\n        require(msg.sender == government, \"Only government can release funds\");\r\n        require(milestonesVerified[milestoneId], \"Milestone not verified\");\r\n        require(releasedFunds + amount <= totalBudget, \"Exceeds budget\");\r\n\r\n        releasedFunds += amount;\r\n        payable(contractor).transfer(amount);\r\n        emit FundsReleased(milestoneId, amount);\r\n    }\r\n\r\n    receive() external payable {}\r\n}",
  "sourcePath": "D:\\Cs blockchain\\blockchain-construction-project\\contracts\\ConstructionProject.sol",
  "compiler": {
    "name": "solc",
    "version": "0.8.28+commit.7893614a.Emscripten.clang"
  },
  "schemaVersion": "3.4.16",
  "updatedAt": "2024-12-29T19:28:09.518Z",
  "devdoc": {
    "kind": "dev",
    "methods": {},
    "version": 1
  },
  "userdoc": {
    "kind": "user",
    "methods": {},
    "version": 1
  }
}